:020000040800F2
:1000000000280020F51C00081D1D00081D1D00080B
:100010001D1D00081D1D00081D1D0008000000001A
:100020000000000000000000000000001D1D00088E
:100030001D1D0008000000001D1D00081D1D0008FA
:100040001D1D00081D1D00081D1D00081D1D0008A8
:100050001D1D00081D1D00081D1D00081D1D000898
:100060001D1D00081D1D00081D1D00081D1D000888
:100070001D1D00081D1D00081D1D00081D1D000878
:100080001D1D00081D1D0008C11800081D1D0008C9
:100090001D1D00081D1D00081D1D00081D1D000858
:1000A0001D1D0008891900081D1D00081D1D0008E0
:1000B0001D1D00081D1D0008000000001D1D00087A
:1000C0001D1D000800000000000000001D1D0008AC
:1000D00000000000A11C00081D1D00080000000019
:1000E0001D1D00081D1D00081D1D0008000000004A
:1000F0000000000000000000000000000000000000
:0C01000000000000000000005FF808F1A3
:10010C00543D256443207C20563D25642F2520003A
:10011C0054656D70657261747572613D2025642043
:10012C004320692062727A696E61203D2025642F1C
:05013C0025200D0A0062
:1001440080B400AF194B1B69184A43F04003136194
:10015400164B1B69154A43F080031361134B1B694B
:10016400124A43F480731361104B1B690F4A43F422
:10017400007313610D4B1B690C4A43F480631361D4
:100184000A4B1B69094A43F400631361074B1B695B
:10019400064A43F480531361044B1B69034A43F436
:1001A4000053136100BFBD4680BC7047001001407E
:1001B40080B582B000AF7860FFF7C2FF154B1B69B2
:1001C400144A23F080031361124B1B69114A43F450
:1001D400000313610F4B1B690E4A23F480731361F0
:1001E4000C4B1B690B4A43F0807313617B68012B32
:1001F4000BD1084B1B69074A23F400531361054BC9
:100204001B69044A43F00053136100BF0837BD461D
:1002140080BD00BF0010014080B582B000AF78609F
:10022400FFF78EFF274B1B69264A23F04003136117
:10023400244B1B69234A43F480031361214B1B693C
:10024400204A23F0800313611E4B1B691D4A43F4AB
:10025400000313611B4B1B691A4A23F48053136177
:10026400184B1B69174A43F080531361154B1B69E4
:10027400144A23F480631361124B1B69114A43F03F
:10028400806313610F4B1B690E4A23F400731361DF
:100294000C4B1B690B4A43F0007313617B68012B01
:1002A4000BD1084B1B69074A23F400531361054B18
:1002B4001B69044A43F00053136100BF0837BD466D
:1002C40080BD00BF0010014080B582B000AF7860EF
:1002D400FFF736FF274B1B69264A23F040031361BF
:1002E400244B1B69234A43F480031361214B1B698C
:1002F400204A23F0800313611E4B1B691D4A43F4FB
:10030400000313611B4B1B691A4A23F480731361A6
:10031400184B1B69174A43F080731361154B1B6913
:10032400144A23F400731361124B1B69114A43F0FE
:10033400007313610F4B1B690E4A23F4805313613E
:100344000C4B1B690B4A43F0805313617B68012BF0
:100354000BD1084B1B69074A23F400531361054B67
:100364001B69044A43F00053136100BF0837BD46BC
:1003740080BD00BF0010014080B582B000AF78603E
:10038400FFF7DEFE214B1B69204A23F4006313614F
:100394001E4B1B691D4A43F0006313611B4B1B6911
:1003A4001A4A23F080031361184B1B69174A43F45C
:1003B40000031361154B1B69144A23F48073136102
:1003C400124B1B69114A43F0807313610F4B1B6975
:1003D4000E4A23F4805313610C4B1B690B4A43F000
:1003E400805313617B68012B0BD1084B1B69074AAF
:1003F40023F400531361054B1B69044A43F0005373
:10040400136100BF0837BD4680BD00BF0010014026
:1004140080B582B000AF7860FFF792FE274B1B696E
:10042400264A23F040031361244B1B69234A43F4F7
:1004340080031361214B1B69204A23F40063136179
:100444001E4B1B691D4A43F0006313611B4B1B6960
:100454001A4A23F480531361184B1B69174A43F05B
:1004640080531361154B1B69144A23F48073136181
:10047400124B1B69114A43F0807313610F4B1B69C4
:100484000E4A23F4007313610C4B1B690B4A43F0AF
:10049400007313617B68012B0BD1084B1B69074A5E
:1004A40023F400531361054B1B69044A43F00053C2
:1004B400136100BF0837BD4680BD00BF0010014076
:1004C40080B582B000AF7860FFF73AFE2D4B1B6910
:1004D4002C4A23F0400313612A4B1B69294A43F435
:1004E40080031361274B1B69264A23F400631361BD
:1004F400244B1B69234A43F000631361214B1B699E
:10050400204A23F4805313611E4B1B691D4A43F098
:10051400805313611B4B1B691A4A23F480731361C4
:10052400184B1B69174A43F080731361154B1B6901
:10053400144A23F400731361124B1B69114A43F0EC
:10054400007313610F4B1B690E4A23F4806313611C
:100554000C4B1B690B4A43F0806313617B68012BCE
:100564000BD1084B1B69074A23F400531361054B55
:100574001B69044A43F00053136100BF0837BD46AA
:1005840080BD00BF0010014080B582B000AF78602C
:10059400FFF7D6FD214B1B69204A23F40063136146
:1005A4001E4B1B691D4A43F0006313611B4B1B69FF
:1005B4001A4A23F080031361184B1B69174A43F44A
:1005C40000031361154B1B69144A23F480731361F0
:1005D400124B1B69114A43F0807313610F4B1B6963
:1005E4000E4A23F0400313610C4B1B690B4A43F47E
:1005F400800313617B68012B0BD1084B1B69074AED
:1006040023F400531361054B1B69044A43F0005360
:10061400136100BF0837BD4680BD00BF0010014014
:1006240080B582B000AF7860FFF78AFD334B1B6959
:10063400324A23F400631361304B1B692F4A43F0A1
:10064400006313612D4B1B692C4A23F08003136153
:100654002A4B1B69294A43F400031361274B1B6986
:10066400264A23F480731361244B1B69234A43F005
:1006740080731361214B1B69204A23F040031361EB
:100684001E4B1B691D4A43F4800313611B4B1B69FA
:100694001A4A23F400731361184B1B69174A43F079
:1006A40000731361154B1B69144A23F480631361AF
:1006B400124B1B69114A43F0806313610F4B1B6992
:1006C4000E4A23F4805313610C4B1B690B4A43F00D
:1006D400805313617B68012B0BD1084B1B69074ABC
:1006E40023F400531361054B1B69044A43F0005380
:1006F400136100BF0837BD4680BD00BF0010014034
:1007040080B582B000AF7860FFF71AFD2D4B1B69EE
:100714002C4A23F4006313612A4B1B69294A43F0D2
:1007240000631361274B1B69264A23F0800313617E
:10073400244B1B69234A43F400031361214B1B69B7
:10074400204A23F4807313611E4B1B691D4A43F036
:10075400807313611B4B1B691A4A23F04003136116
:10076400184B1B69174A43F480031361154B1B692B
:10077400144A23F400731361124B1B69114A43F0AA
:10078400007313610F4B1B690E4A23F480531361EA
:100794000C4B1B690B4A43F0805313617B68012B9C
:1007A4000BD1084B1B69074A23F400531361054B13
:1007B4001B69044A43F00053136100BF0837BD4668
:1007C40080BD00BF0010014080B582B000AF7860EA
:1007D400FFF7B6FC2D4B1B692C4A23F4006313610D
:1007E4002A4B1B69294A43F000631361274B1B6999
:1007F400264A23F080031361244B1B69234A43F4E4
:1008040000031361214B1B69204A23F48073136195
:100814001E4B1B691D4A43F0807313611B4B1B69FC
:100824001A4A23F040031361184B1B69174A43F417
:1008340080031361154B1B69144A23F4007313617D
:10084400124B1B69114A43F0007313610F4B1B6970
:100854000E4A23F4806313610C4B1B690B4A43F06B
:10086400806313617B68012B0BD1084B1B69074A1A
:1008740023F400531361054B1B69044A43F00053EE
:10088400136100BF0837BD4680BD00BF00100140A2
:1008940080B400AF6D4B9B696C4A43F010039361C5
:1008A4006B4B1B686A4A23F00F031360684B1B6889
:1008B400674A43F006031360654B1B68644A23F0E0
:1008C400F0031360624B1B68614A43F060031360DA
:1008D4005F4B1B685E4A23F4706313605C4B1B68B8
:1008E4005B4A43F4C0631360594B1B68584A23F4B2
:1008F40070431360564B1B68554A43F4C04313605E
:10090400534B1B68524A23F470231360504B1B68EB
:100914004F4A43F4C02313604D4B1B684C4A23F4E5
:10092400700313604A4B1B68494A43F4C0031360C5
:10093400474B1B68464A23F070431360444B1B68C3
:10094400434A43F0C0431360414B1B68404A23F0C1
:10095400706313603E4B1B683D4A43F0C0631360F1
:100964003B4B5B683A4A23F00F035360384B5B6898
:10097400374A43F006035360354B5B68344A23F02F
:10098400F0035360324B5B68314A43F060035360B9
:100994002F4B5B682E4A23F4706353602C4B5B68C7
:1009A4002B4A43F4C0635360294B5B68284A23F401
:1009B40070435360264B5B68254A43F4C04353603D
:1009C400234B5B68224A23F470235360204B5B68FB
:1009D4001F4A43F4C02353601D4B5B681C4A23F435
:1009E400700353601A4B5B68194A43F4C0035360A5
:1009F400174B1B69164A43F001031361144B1B691F
:100A0400134A43F002031361114B1B69104A43F06C
:100A1400040313610E4B1B690D4A23F00203136197
:100A24000B4B1B690A4A43F400331361084B1B69DF
:100A3400074A23F004031361054B1B69044A43F47A
:100A44008023136100BFBD4680BC70470010024084
:100A54000010014080B58AB000AF78607A68C24B5C
:100A640083FB02139914D317CB1AC04901FB03F378
:100A7400D31ABF4A82FB03125213DB17D31A3B6209
:100A84007A68BB4B83FB02135913D317CB1AB949AA
:100A940001FB03F3D31AB84A82FB03121213DB17C8
:100AA400D31AFB617A68B44B83FB02131913D3176F
:100AB400CB1A42F2107101FB03F3D31AAF4A82FB43
:100AC40003129211DB17D31ABB617A68AB4B83FB19
:100AD40002139911D317CB1A4FF47A7101FB03F364
:100AE400D31AA74A82FB03125211DB17D31A7B6174
:100AF4007A68A34B83FB02135911D317CB1A6421D1
:100B040001FB03F3D31A9F4A82FB03129210DB17F3
:100B1400D31A3B617A689B4B83FB02139910D3175A
:100B2400C91A0B469B000B445B00D31AFB600023DD
:100B34007B62E5E17B6A01337B62934B1B69924ADA
:100B440043F0010313613B6A013B082B2FD801A238
:100B540052F823F0AD0B0008A70B0008A10B000806
:100B64009B0B0008950B00088F0B0008890B0008ED
:100B7400830B00087D0B0008FFF7C2FD19E0FFF7A7
:100B84004FFD16E0FFF700FD13E0FFF799FC10E0BE
:100B9400FFF73EFC0DE0FFF7EFFB0AE0FFF794FBE5
:100BA40007E0FFF739FB04E0FFF702FB01E0FFF782
:100BB4000BFE642000F064FB734B1B69724A23F044
:100BC40001031361704B1B696F4A43F48033136153
:100BD4006D4B1B696C4A43F002031361FB69013BD3
:100BE400082B30D801A252F823F000BF450C0008AE
:100BF4003F0C0008390C0008330C00082D0C0008C9
:100C0400270C0008210C00081B0C0008150C000818
:100C1400FFF776FD19E0FFF703FD16E0FFF7B4FCDC
:100C240013E0FFF74DFC10E0FFF7F2FB0DE0FFF7D8
:100C3400A3FB0AE0FFF748FB07E0FFF7EDFA04E047
:100C4400FFF7B6FA01E0FFF7BFFD502000F018FBF4
:100C54004D4B1B694C4A23F0020313614A4B1B6939
:100C6400494A43F400331361474B1B69464A43F036
:100C740004031361BB69013B082B30D801A252F86D
:100C840023F000BFDD0C0008D70C0008D10C0008CD
:100C9400CB0C0008C50C0008BF0C0008B90C0008F8
:100CA400B30C0008AD0C0008FFF72AFD19E0FFF7AC
:100CB400B7FC16E0FFF768FC13E0FFF701FC10E057
:100CC400FFF7A6FB0DE0FFF757FB0AE0FFF7FCFA7E
:100CD40007E0FFF7A1FA04E0FFF76AFA01E0FFF783
:100CE40073FD502000F0CCFA274B1B69264A23F0F1
:100CF40004031361244B1B69234A43F480231361C7
:100D0400214B1B69204A43F0080313617B69013BB3
:100D1400082B4BD801A252F823F000BFA90D0008FC
:100D2400A10D0008990D0008910D0008650D00083B
:100D34005D0D0008550D00084D0D0008450D000817
:100D44000120FFF7DDFC34E00120FFF769FC30E00F
:100D54000120FFF719FC2CE00120FFF7B1FB28E08C
:100D64000120FFF755FB24E083DE1B4340420F00C4
:100D740089B5F814A0860100AD8BDB68D34D6210F1
:100D84001F85EB5167666666001001400120FFF77E
:100D9400F3FA0EE00120FFF797FA0AE00120FFF7CB
:100DA4003BFA06E00120FFF703FA02E00120FFF717
:100DB4000BFD502000F064FA554B1B69544A23F094
:100DC40008031361524B1B69514A43F40023136116
:100DD4004F4B1B694E4A43F0100313613B69013BBF
:100DE400082B30D801A252F823F000BF450E0008AA
:100DF4003F0E0008390E0008330E00082D0E0008BF
:100E0400270E0008210E00081B0E0008150E00080E
:100E1400FFF776FC19E0FFF703FC16E0FFF7B4FBDD
:100E240013E0FFF74DFB10E0FFF7F2FA0DE0FFF7D8
:100E3400A3FA0AE0FFF748FA07E0FFF7EDF904E048
:100E4400FFF7B6F901E0FFF7BFFC502000F018FAF5
:100E54002F4B1B692E4A23F0100313612C4B1B6983
:100E64002B4A43F480131361294B1B69284A43F02E
:100E740020031361FB68013B082B30D801A252F810
:100E840023F000BFDD0E0008D70E0008D10E0008C5
:100E9400CB0E0008C50E0008BF0E0008B90E0008EE
:100EA400B30E0008AD0E0008FFF72AFC19E0FFF7A7
:100EB400B7FB16E0FFF768FB13E0FFF701FB10E058
:100EC400FFF7A6FA0DE0FFF757FA0AE0FFF7FCF97F
:100ED40007E0FFF7A1F904E0FFF76AF901E0FFF783
:100EE40073FC502000F0CCF9094B1B69084A23F02D
:100EF40020031361064B1B69054A43F40013136175
:100F04007B6A092B7FF716AE00BF2837BD4680BD2C
:100F14000010014080B582B000AF3F4B9B693E4A50
:100F240043F0080393613D4B5B683C4A23F0F003B4
:100F340053603A4B5B68394A43F060035360374B64
:100F44005B68364A23F470635360344B5B68334AFE
:100F540043F4C0635360314B5B68304A23F47043FD
:100F640053602E4B5B682D4A43F4C04353602B4BB4
:100F74005B682A4A23F470235360284B5B68274A32
:100F840043F4C0235360254B5B68244A23F4700365
:100F94005360224B5B68214A43F4C00353601F4BE8
:100FA4005B681E4A23F0706353601C4B5B681B4AEA
:100FB40043F0C0635360194B5B68184A23F07043D5
:100FC4005360164B5B68154A43F0C0435360134BA0
:100FD400DB68124A23F46063D36000237B6002E081
:100FE4007B6801337B607B680D4A9342F8D9022009
:100FF40000F0B0F8202000F047F80F2000F044F88B
:10100400012000F041F80021002000F0EFF800BFBB
:101014000837BD4680BD00BF00100240000C0140EF
:101024007F1A060080B582B000AF7860012000F01E
:101034002BF80021002000F0D9F81AE07B681B7817
:101044000A2B0FD10F4B1B780133DAB20D4B1A70F8
:101054000C4B1B781946002000F0C8F87B6801335C
:101064007B6006E07B685A1C7A601B78184600F0A7
:101074002DF87B681B78002BE0D100BF0837BD46F4
:1010840080BD00BF0900002080B582B000AF0346D8
:10109400FB710D4B4FF400725A610B4B4FF480629D
:1010A4005A61FB791B09DBB2184600F053F8FB794F
:1010B400184600F04FF84FF47A7000F0E1F800BFE2
:1010C4000837BD4680BD00BF000C014080B582B02A
:1010D40000AF0346FB711C4B1B78002B2FD11B4B1D
:1010E4004FF400721A61194B4FF480625A61FB7914
:1010F4001B09DBB2184600F02DF8FB79184600F006
:1011040029F84FF47A7000F0BBF8114B1B780133C7
:10111400DAB20F4B1A700E4B1B78102B10D10C4BFC
:1011240000221A70084B1B780133DAB2064B1A708E
:10113400054B1B781946002000F058F800E000BF6A
:101144000837BD4680BD00BF09000020000C0140E7
:101154000800002080B483B000AF0346FB71224B2B
:101164004FF400621A61FB7903F00103002B04D0F1
:101174001D4B4FF480521A6103E01B4B4FF4805215
:101184005A61FB7903F00203002B04D0164B4FF491
:1011940000521A6103E0144B4FF400525A61FB7978
:1011A40003F00403002B04D00F4B4FF480421A6168
:1011B40003E00D4B4FF480425A61FB7903F00803BE
:1011C400002B04D0084B4FF400421A6103E0064B95
:1011D4004FF400425A61044B4FF400625A6100BF5D
:1011E4000C37BD4680BC7047000C014080B584B00C
:1011F40000AF03460A46FB711346BB71154AFB79DF
:101204001370154ABB7913700220FFF73DFF0023CA
:10121400FB6005E01420FFF737FFFB680133FB6038
:10122400BA7913469B001344DB001A46FB689342C9
:10123400F0DB0023FB6005E01420FFF725FFFB68CB
:101244000133FB60FB79FA689A42F5DB00BF103783
:10125400BD4680BD080000200900002080B500AF15
:10126400FFF758FE00F0B2F900F006FB00F0EAFBCD
:1012740000F0E8FC00F044F9642000F001F8F9E71C
:1012840080B485B000AF78607B68642202FB03F20F
:10129400094BA3FB0213D21A520813449B08FB60A8
:1012A400FB68013BFB60FB68002BF9D100BF1437DE
:1012B400BD4680BC704700BF2549922480B489B0E4
:1012C40000AF786039600023BB6007F10C03002293
:1012D4001A605A609A60DA600023FB617A681F4BD7
:1012E40083FB02139910D317C91A0B469B000B44B6
:1012F4005B00D11ACAB2FB69591CF9613032D2B20F
:1013040007F120010B4403F8182C7B68134A82FB75
:1013140003129210DB17D31A7B607B68002BDDD19C
:1013240000237B600FE0FA697B68D31A5A1E7B683E
:1013340039680B4407F120010A4412F8182C1A707A
:101344007B6801337B607A68FB699A42EBDBFB695B
:1013540018462437BD4680BC704700BF6766666682
:1013640080B48FB000AFF860B9607A603B6000234E
:101374007B6300233B63B5E0BB681B782F2B0BD149
:10138400BB680133BB60FB685A1CFA60BA68127808
:101394001A707B6B01337B63BB681B78252B0BD0E6
:1013A400BA68531CBB60FB68591CF96012781A7048
:1013B4007B6B01337B6395E0BB680133BB60BB6827
:1013C4001B78642B45D13B6B002B42D17B681B6897
:1013D400FB6242F21073BB6201237B6232E0FA6A61
:1013E400BB6A92FBF3F37B617B6A012B0ED17B69B1
:1013F400002B0BD1BB6A012B08D0BB6A3F4A82FB8E
:1014040003129210DB17D31ABB621BE000237B622A
:101414007B69BA6A02FB03F3FA6AD31AFB627B693B
:10142400DAB2FB68591CF9603032D2B21A707B6BA5
:1014340001337B63BB6A314A82FB03129210DB17D0
:10144400D31ABB62BB6A002BC9DC3B6B01333B6321
:1014540045E0BB681B78642B41D13B6B012B3ED12B
:101464003B681B683B6242F21073FB610123BB6162
:1014740032E03A6AFB6992FBF3F33B61BB69012BEF
:101484000ED13B69002B0BD1FB69012B08D0FB6902
:101494001A4A82FB03129210DB17D31AFB611BE07A
:1014A4000023BB613B69FA6902FB03F33A6AD31A6E
:1014B4003B623B69DAB2FB68591CF9603032D2B244
:1014C4001A707B6B01337B63FB690C4A82FB03124A
:1014D4009210DB17D31AFB61FB69002BC9DCBB68D4
:1014E4000133BB60BB681B78002B7FF445AF7B6B7B
:1014F400DBB218463C37BD4680BC704767666666FB
:1015040080B500AF2E4B9B681B0903F00103002B31
:101514000CD12C4B1B68012B08D12B4B1B682A4A7E
:1015240043F001031360274B00221A60244B9B688D
:101534001B0903F00103002B40D0224B01221A6047
:10154400214B1B68204A23F0010313601C4B9B684A
:101554005B0903F00103002B0DD14FF080431B6C9A
:101564004FF080431B6C4FF08042323B13644FF4C6
:101574007A70FFF785FE124B9B689B0903F0010309
:10158400002B1BD14FF080431B6C3233B3F57A7FB1
:101594000BD24FF080431B6C4FF080423233136404
:1015A4004FF47A70FFF76CFE08E04FF0804340F28E
:1015B400E7321A644FF47A70FFF762FE00BF80BD11
:1015C40000080140000000200004004080B400AF87
:1015D4004B4B9B694A4A43F004039361494B1B6894
:1015E400484A23F470231360464B1B68454A43F46E
:1015F400A0231360434B1B68424A23F47003136017
:10160400404B1B683F4A43F4A00313603D4B1B68E7
:101614003C4A23F0706313603A4B1B68394A43F029
:10162400A0631360374B1B69364A43F01003136100
:10163400344B1B69334A43F020031361314B1B695C
:10164400304A43F0400313612E4B1B682D4A23F4A8
:10165400704313602B4B1B682A4A43F420431360E6
:10166400274BDB69264A43F00103D3614FF08043E3
:1016740007229A624FF0804340F2E732DA624FF079
:1016840080434FF4FA721A644FF08043DB694FF0E1
:10169400804223F4E043D3614FF08043DB694FF091
:1016A400804243F4C043D3614FF08043DB694FF081
:1016B400804223F40063D3614FF080431B6A4FF0F0
:1016C400804223F4005313624FF080431B6A4FF0AF
:1016D400804243F4805313624FF080431B684FF001
:1016E400804223F0800313604FF080431B684FF067
:1016F400804243F00103136000BFBD4680BC7047C5
:10170400001002400008014080B483B000AF0346DB
:10171400FB7197F90730002B0BDBFB7903F01F02F9
:10172400064997F907305B09012000FA02F241F8F3
:10173400232000BF0C37BD4680BC704700E100E0A9
:1017440080B483B000AF03463960FB7197F907306A
:10175400002B0ADB3B68DAB20C4997F90730120117
:10176400D2B20B4483F800230AE03B68DAB208499A
:10177400FB7903F00F03043B1201D2B20B441A7637
:1017840000BF0C37BD4680BC704700BF00E100E0DD
:1017940000ED00E080B582B000AF78607B689B68A4
:1017A40043F001027B689A601420FFF769FD7B68AF
:1017B4009B6843F004027B689A6000BF7B689B6867
:1017C40003F00403042BF9D07B689B6823F0010227
:1017D4007B689A607B689B6823F002027B689A604E
:1017E4007B689B6843F400027B689A607B68DB6AD1
:1017F40023F470027B68DA627B685B6B23F01F0260
:101804007B685A637B685B6B43F001027B685A63B5
:101814007B689B6823F460227B689A607B689B6882
:1018240043F400227B689A60074B9B68064A43F4A2
:10183400801393607B689B6843F001027B689A6025
:1018440000BF0837BD4680BD0024014080B400AF0E
:10185400074B9B69064A43F004039361054B1B68DD
:10186400044A23F0F003136000BFBD4680BC7047F8
:10187400001002400008014080B500AF0D4B9B6989
:101884000C4A43F400739361FFF7E0FF0A48FFF743
:1018940081FF094B5B68084A43F020035360012130
:1018A4001220FFF74DFF1220FFF72EFF00F0FAF889
:1018B40000BF80BD001002400024014080B483B00A
:1018C40000AF2B4B1B68FB80FB8803F00203002B4B
:1018D40042D0274BDB6C9BB2264A1360254B1A6817
:1018E400254B1B689A4237D0224B1B68952B0CDC86
:1018F400224B9B681B0903F00103002B28D14FF0F6
:10190400804340F2E7321A6422E01A4B1B68B3F5B5
:10191400907F0BDB194B9B681B0903F00103002B21
:1019240016D14FF0804300221A6411E0134B9B68D8
:101934001B0903F00103002B0AD10E4B1B68953BD6
:101944001A46DB00D31A03F2E7324FF080431A64DD
:10195400084B1B68084A1360094B1B69084A23F0AB
:101964004003136100BF0C37BD4680BC704700BF05
:10197400002401405800002010000020000801400D
:101984000004004080B500AF244B1B68002B00DA34
:101994000733DB101A46224B1A60214B1B681E2B9F
:1019A40004DD1F4B1B68013B1D4A13604FF080434D
:1019B4001B6C642202FB03F21A4BA3FB0213D21A20
:1019C400520813445B0AC3F164031A46164B1A60A7
:1019D400164B1B680133154A1360134B104A144904
:1019E4001448FFF7BDFC1348FFF71CFB0F4B1B68A3
:1019F40003F00103002B08D10B4B094A0E490F4891
:101A0400FFF7AEFC0D4800F033F90D4B1B690C4A8F
:101A140023F00103136100BF80BD00BF100000204C
:101A240014000020410A68065C0000200400002025
:101A34000C010008180000201C01000838000020D8
:101A4400002C014080B500AF144B9B69134A43F04E
:101A540004039361114B9B69104A43F4006393613F
:101A64000F4BDB680E4A43F00103D3600C4B00229A
:101A74001A610B4B41F63F729A62094B41F287326D
:101A8400DA621920FFF740FE62B6054B1B68044A70
:101A940043F00103136000BF80BD00BF001002408B
:101AA400002C014080B500AF294B9B69284A43F0C4
:101AB40004039361264BDB69254A43F00203D36197
:101AC400244B5B68234A23F070035360214B5B680B
:101AD400204A43F0500353601E4B41F63F729A6212
:101AE4001C4B4FF47A72DA621A4B32229A63194B06
:101AF4009B69184A23F4E0439361164B9B69154A8A
:101B040043F4C0439361134B1B6A124A43F020030E
:101B14001362104B1B6A0F4A43F0100313620D4B00
:101B2400DB680C4A43F04003D3600A4B1B69094A43
:101B340023F040031361074B1B68064A43F001037B
:101B440013601D20FFF7E0FD62B600BF80BD00BF3B
:101B5400001002400004004080B483B000AF03468C
:101B6400FB7197F90730002B0BDBFB7903F01F02A5
:101B7400064997F907305B09012000FA02F241F89F
:101B8400232000BF0C37BD4680BC704700E100E055
:101B940080B483B000AF78607B68DB6823F40052C4
:101BA4007B68DA607B68DB6823F480527B68DA60E8
:101BB4007B681B6923F440527B681A617B6840F29E
:101BC40041329A607B68DB6843F00C027B68DA6020
:101BD4007B68DB6843F400527B68DA6000BF0C3733
:101BE400BD4680BC704780B400AF144B9B69134A58
:101BF40043F004039361124B5B68114A23F0F00332
:101C040053600F4B5B680E4A43F0300353600C4B38
:101C14005B680B4A43F080035360094B5B68084AD6
:101C240023F470635360064B5B68054A43F4806396
:101C3400536000BFBD4680BC704700BF0010024027
:101C44000008014080B500AF074B9B69064A43F486
:101C540080439361FFF7C7FF0448FFF799FF2520EE
:101C6400FFF77AFF00BF80BD00100240003801403A
:101C740080B483B000AF7860064A7B681360064B7B
:101C8400DB68054A43F08003D36000BF0C37BD46D0
:101C940080BC70470C0000200038014080B483B041
:101CA40000AF114BDA68104B1B68134003F080033C
:101CB400002B14D00D4B1B685A1C0C490A601B786E
:101CC400FB710A4B1B681B78002B05D1064BDB68A4
:101CD400054A23F08003D360034AFB79536000BFB5
:101CE4000C37BD4680BC7047003801400C00002012
:101CF40006480749074A914205D050F8043B41F889
:101D0400043B9142F9D3FFF7A9BAFEE71E1D000870
:0A1D14000000002008000020FEE798
:081D1E000100000001000000BB
:00000001FF
